:100000000C942A000C943E060C946C060C94470049
:100010000C9447000C942B070C9447000C94470059
:100020000C9447000C9447000C9447000C94B406C1
:100030000C9447000C9447000C9447000C94470024
:100040000C9447000C9447000C9447000C94470014
:100050000C94470011241FBECFE5D8E0DEBFCDBF12
:1000600010E0A0E6B0E0ECEFFEE002C005900D92DB
:10007000A23AB107D9F720E0A2EAB0E001C01D9290
:10008000AB3CB207E1F70E9402050C947C070C948C
:1000900000000E9452030E9406040E9446020E9431
:1000A0000D040E9458040E94CC0488EE90E00E9447
:1000B000890487E790E00E94FD04089560E081E0F4
:1000C0000E946F0260E082E00E946F0260E083E0C5
:1000D0000E946F0260E084E00E946F020E940604AA
:1000E00080E690E00E94DB031092A3000895209127
:1000F000A300222339F0643171058105910510F4C4
:100100000E945E0008950E94E202089561E081E08D
:100110000E946F0261E082E00E946F0261E083E072
:100120000E946F0261E084E00E946F020E94060458
:100130008DE690E00E94DB0381E08093A3000895A8
:100140001092A30061E081E00E946F0261E082E012
:100150000E946F0260E083E00E946F0260E084E032
:100160000E946F020E9406048BE790E00E94DB036E
:100170002FEF85EA9EE0215080409040E1F700C0DB
:1001800000000E945E0008951092A30060E081E0EC
:100190000E946F0260E082E00E946F0261E083E0F3
:1001A0000E946F0261E084E00E946F020E940604D8
:1001B00085E890E00E94DB032FEF85EA9EE0215066
:1001C00080409040E1F700C000000E945E0008956A
:1001D000CF92DF92EF92FF926B017C018091A4009D
:1001E000811134C025E1C216D104E104F10418F0F4
:1001F0000E945E002BC085E1C816D104E104F10421
:1002000028F581E08093A4008093A2000E948300DF
:1002100085E00E940A040E94060465E080E00E94D6
:10022000EE0380E990E00E94DB0365E081E00E943C
:10023000EE0389E990E00E94DB039FEF29E688E165
:10024000915020408040E1F700C000008091A20062
:10025000823079F118F4813041F00EC1833009F415
:100260004CC0843009F46DC007C18091AD009091FD
:10027000AE00A091AF00B091B000C80ED91EEA1E2A
:10028000FB1EC092AD00D092AE00E092AF00F092A3
:10029000B00083E00E940A049FEF29E688E19150B4
:1002A00020408040E1F700C0000082E08093A2007F
:1002B000E3C08091AD009091AE00A091AF00B091ED
:1002C000B000C80ED91EEA1EFB1EC092AD00D0922F
:1002D000AE00E092AF00F092B0008BE00E940A0402
:1002E0009FEF29E688E1915020408040E1F700C06F
:1002F000000083E08093A200BFC08091A90090918C
:10030000AA00A091AB00B091AC00C80ED91EEA1EA5
:10031000FB1EC092A900D092AA00E092AB00F0921E
:10032000AC008CE00E940A049FEF29E688E191501E
:1003300020408040E1F700C0000084E08093A200EC
:100340009BC08091A9009091AA00A091AB00B091B0
:10035000AC00C80ED91EEA1EFB1EC092A900D092A6
:10036000AA00E092AB00F092AC004091AD00509139
:10037000AE006091AF007091B000D701C601840F4C
:10038000951FA61FB71F8093A5009093A600A0936A
:10039000A700B093A80084369105A105B10590F49B
:1003A0000E94860088E00E940A049FEF29E688E107
:1003B000915020408040E1F700C0000081E0809330
:1003C000A2005AC0C416D506E606F70658F588E01E
:1003D0000E940A040E94C4009FEF29E688E1915020
:1003E00020408040E1F700C000001092A40010926D
:1003F000A5001092A6001092A7001092A8001092DB
:10040000A9001092AA001092AB001092AC001092BA
:10041000AD001092AE001092AF001092B00010929A
:10042000A2002AC088E00E940A040E94A0009FEF58
:1004300029E688E1915020408040E1F700C00000AB
:100440001092A4001092A5001092A6001092A7008E
:100450001092A8001092A9001092AA001092AB006E
:100460001092AC001092AD001092AE001092AF004E
:100470001092B0001092A200FF90EF90DF90CF900A
:1004800008950E9473040E94E704089541E063E028
:1004900082E00E94070541E064E082E00E940705D7
:1004A00041E063E082E00E94070541E064E082E011
:1004B0000E94070541E065E082E00E94070541E0F7
:1004C00066E082E00E94070541E065E082E00E946C
:1004D000070541E066E082E00E9407050895662373
:1004E00019F06130C1F108958230A1F018F4813023
:1004F00031F008958330C9F0843011F1089541E05E
:1005000063E082E00E94780540E064E082E00E94BF
:100510007805089541E063E082E00E94780540E0BC
:1005200064E082E00E947805089541E065E082E0A1
:100530000E94780540E066E082E00E947805089518
:1005400041E065E082E00E94780540E066E082E0FC
:100550000E94780508958230A1F018F4813031F0BE
:1005600008958330C9F0843011F1089540E063E0CC
:1005700082E00E94780541E064E082E00E94780514
:10058000089540E063E082E00E94780541E064E085
:1005900082E00E947805089540E065E082E00E94D4
:1005A000780541E066E082E00E947805089540E029
:1005B00065E082E00E94780541E066E082E00E940A
:1005C0007805089541E063E082E00E94780541E00B
:1005D00064E082E00E94780541E063E082E00E94EE
:1005E000780541E064E082E00E94780541E065E042
:1005F00082E00E94780541E066E082E00E94780592
:1006000041E065E082E00E94780541E066E082E03A
:100610000E9478050895CF93C82F40E061E081E003
:100620000E94780540E062E081E00E94780540E0A9
:1006300063E081E00E9478058BB39C2F907F8F70E0
:10064000892B8BBB41E063E081E00E9478058FE954
:100650009FE00197F1F700C0000040E063E081E017
:100660000E94780520E1C29FC00111249BB39F70B6
:10067000892B8BBB41E063E081E00E9478058FE924
:100680009FE00197F1F700C0000040E063E081E0E7
:100690000E9478058FE19EE40197F1F700C0000009
:1006A000CF91089541E061E081E00E94070541E0BB
:1006B00062E081E00E94070541E063E081E00E9482
:1006C000070541E064E080E00E94070541E065E045
:1006D00080E00E94070541E066E080E00E94070597
:1006E00041E067E080E00E9407052FEF81EE94E093
:1006F000215080409040E1F700C0000083E30E9459
:100700000B0382E30E940B0388E20E940B038CE040
:100710000E940B0381E00E940B0386E00E940B0302
:1007200082E00E940B030895CF93C82F41E061E05F
:1007300081E00E94780540E062E081E00E94780557
:1007400040E063E081E00E9478058BB39C2F907FAE
:100750008F70892B8BBB41E063E081E00E947805BC
:100760008FE99FE00197F1F700C0000040E063E0EF
:1007700081E00E94780520E1C29FC00111249BB353
:100780009F70892B8BBB41E063E081E00E9478057C
:100790008FE99FE00197F1F700C0000040E063E0BF
:1007A00081E00E9478058FE19EE40197F1F700C097
:1007B0000000CF9108950F931F93CF938C01C0E059
:1007C00003C00E949403CF5FF801EC0FF11D8081FC
:1007D0008111F7CFCF911F910F910895CF93DF93A0
:1007E00000D0CDB7DEB790E8998390EC9A83E1E032
:1007F000F0E0EC0FFD1FE80FF11D8081860F0E94D5
:100800000B030F900F90DF91CF91089581E00E942C
:100810000B0308950E94FB06089541E065E083E024
:100820000E9407050E94DD060E94F10688E00E94F2
:100830000A0408958091B7008F5F8093B7000895F0
:100840008091B900813099F58091B800811109C07B
:100850000E941C0714BC81E08093B8001092B7007E
:1008600008956091B70070E0762F662784B5680F11
:10087000711D072E000C880B990B6093B3007093C9
:10088000B4008093B5009093B600E091B100F09170
:10089000B200309709F009958AE18A95F1F700C016
:1008A00014BC1092B8001092B7001092B9000895CD
:1008B00041E060E083E00E94070540E062E083E001
:1008C0000E94070562E083E00E94E9050E9421067C
:1008D0000E94130780E294E00E9439068AE194E0C6
:1008E0000E94260708958091B900811111C041E04E
:1008F00060E083E00E94780585E38A95F1F70000C7
:1009000040E060E083E00E94780581E08093B900D8
:1009100008959093B2008093B10008958091C00033
:100920008F5F8093C00008958091C200813099F557
:100930008091C100811109C00E94A50612BE81E00C
:100940008093C1001092C00008956091C00070E0D3
:10095000762F662782B7680F711D072E000C880B53
:10096000990B6093BC007093BD008093BE00909380
:10097000BF00E091BA00F091BB00309709F00995F3
:100980008AE18A95F1F700C012BE1092C100109260
:10099000C0001092C200089541E061E083E00E942F
:1009A000070540E063E083E00E94070563E083E021
:1009B0000E94E9050E942D060E949C0684E994E0AD
:1009C0000E9467068EE894E00E94AF060895809129
:1009D000C200811111C041E061E083E00E9478050E
:1009E00085E38A95F1F7000040E061E083E00E9432
:1009F000780581E08093C20008959093BB008093B6
:100A0000BA0008950E9449000E944102FDCF44238C
:100A1000B9F1413009F06BC0813089F028F08230A3
:100A2000C9F0833011F1089581E090E002C0880F91
:100A3000991F6A95E2F79AB3892B8ABB089581E0E2
:100A400090E002C0880F991F6A95E2F797B3892B4F
:100A500087BB089581E090E002C0880F991F6A95D6
:100A6000E2F794B3892B84BB089581E090E002C043
:100A7000880F991F6A95E2F791B3892B81BB08957E
:100A8000813091F028F08230D9F0833029F1089537
:100A900081E090E002C0880F991F6A95E2F7809587
:100AA0009AB389238ABB089581E090E002C0880F41
:100AB000991F6A95E2F7809597B3892387BB0895BC
:100AC00081E090E002C0880F991F6A95E2F7809557
:100AD00094B3892384BB089581E090E002C0880F1D
:100AE000991F6A95E2F7809591B3892381BB089598
:100AF0004423B9F1413009F06BC0813089F028F00E
:100B00008230C9F0833011F1089581E090E002C095
:100B1000880F991F6A95E2F79BB3892B8BBB0895C9
:100B200081E090E002C0880F991F6A95E2F798B3C0
:100B3000892B88BB089581E090E002C0880F991F3F
:100B40006A95E2F795B3892B85BB089581E090E023
:100B500002C0880F991F6A95E2F792B3892B82BB76
:100B60000895813091F028F08230D9F0833029F156
:100B7000089581E090E002C0880F991F6A95E2F71E
:100B800080959BB389238BBB089581E090E002C0E0
:100B9000880F991F6A95E2F7809598B3892388BBDF
:100BA000089581E090E002C0880F991F6A95E2F7EE
:100BB000809595B3892385BB089581E090E002C0BC
:100BC000880F991F6A95E2F7809592B3892382BBBB
:100BD0000895813089F028F08230C9F0833011F116
:100BE000089581E090E002C0880F991F6A95E2F7AE
:100BF0009BB3892B8BBB089581E090E002C0880FE6
:100C0000991F6A95E2F798B3892B88BB089581E014
:100C100090E002C0880F991F6A95E2F795B3892B7F
:100C200085BB089581E090E002C0880F991F6A9506
:100C3000E2F792B3892B82BB08958FB780688FBF8C
:100C400008950E941D068BB780648BBF85B78160B5
:100C500085BF85B78D7F85BF08950E941D068BB720
:100C600080688BBF85B7846085BF85B7877F85BF68
:100C700008959093C6008093C50008951F920F9227
:100C80000FB60F9211242F933F934F935F936F935F
:100C90007F938F939F93AF93BF93EF93FF93E091D5
:100CA000C500F091C600309709F00995FF91EF91CA
:100CB000BF91AF919F918F917F916F915F914F9174
:100CC0003F912F910F900FBE0F901F90189590930A
:100CD000C4008093C30008951F920F920FB60F9225
:100CE00011242F933F934F935F936F937F938F9331
:100CF0009F93AF93BF93EF93FF93E091C300F09165
:100D0000C400309709F00995FF91EF91BF91AF9121
:100D10009F918F917F916F915F914F913F912F9113
:100D20000F900FBE0F901F9018958FB780688FBFE0
:100D300089B7816089BF089583B7877F83BF83B7F1
:100D40008F7B83BF0E949506089583B7816083BF20
:100D500083B78D7F83BF83B7846083BF08959093EB
:100D6000C8008093C70008951F920F920FB60F928C
:100D700011242F933F934F935F936F937F938F93A0
:100D80009F93AF93BF93EF93FF93E091C700F091D0
:100D9000C800309709F00995FF91EF91BF91AF918D
:100DA0009F918F917F916F915F914F913F912F9183
:100DB0000F900FBE0F901F9018958FB58E7F8FBD2F
:100DC0008FB582608FBD8EB588608EBD8EB5806117
:100DD0008EBD8FB580688FBD82EE94E097BD86BDD5
:100DE00008958EB58E7F8EBD8EB58D7F8EBD8EB5EE
:100DF00084608EBD089522EE34E0482F429FC001EA
:100E0000439F900D112464E670E00E9454076150E6
:100E100071097BBD6ABD08958FB780688FBF89B7A0
:100E2000806489BF089585B5877F85BD85B58F7B33
:100E300085BD0E940C07089585B5816085BD85B587
:100E4000826085BD85B5846085BD08959093CA0094
:100E50008093C90008951F920F920FB60F9211242C
:100E60002F933F934F935F936F937F938F939F93B2
:100E7000AF93BF93EF93FF93E091C900F091CA0045
:100E8000309709F00995FF91EF91BF91AF919F9134
:100E90008F917F916F915F914F913F912F910F9023
:100EA0000FBE0F901F90189597FB072E16F4009415
:100EB00007D077FD09D00E94680707FC05D03EF4F3
:100EC000909581959F4F0895709561957F4F0895F6
:100ED000AA1BBB1B51E107C0AA1FBB1FA617B70760
:100EE00010F0A61BB70B881F991F5A95A9F780957C
:0C0EF0009095BC01CD010895F894FFCF4F
:100EFC006D6F766520666F7277617264006D6F76C8
:100F0C0065206261636B77617264006D6F7665203A
:100F1C004C454654006D6F76652052494748540045
:100F2C004F70737461636C650044657465637465BC
:020F3C0064004F
:00000001FF
