S01800004D4F4449464945445F50524F4A4543542E7372656355
S11300000C942A000C947C060C94AA060C944700C9
S11300100C9447000C942D080C9447000C94470052
S11300200C9447000C9447000C9447000C94390737
S11300300C9447000C9447000C9447000C94470020
S11300400C9447000C9447000C9447000C94470010
S11300500C94470011241FBECFE5D8E0DEBFCDBF0E
S113006010E0A0E6B0E0E0E0F1E102C005900D92FE
S1130070A83AB107D9F720E0A8EAB0E001C01D9280
S1130080A43DB207E1F70E9402050C947E080C948B
S113009000000E9452030E9406040E9446020E942D
S11300A00D040E9458040E94CC0488EE90E00E9443
S11300B0890487E790E00E94FD04089560E081E0F0
S11300C00E946F0260E082E00E946F0260E083E0C1
S11300D00E946F0260E084E00E946F020E940604A6
S11300E085E690E00E94DB031092A9000895209118
S11300F0A900222339F0643171058105910510F4BA
S11301000E945E0008950E94E202089561E081E089
S11301100E946F0261E082E00E946F0261E083E06E
S11301200E946F0261E084E00E946F020E94060454
S113013082E790E00E94DB0381E08093A9000895A8
S11301401092A90061E081E00E946F0261E082E008
S11301500E946F0260E083E00E946F0260E084E02E
S11301600E946F020E94060480E890E00E94DB0374
S11301702FEF85EA9EE0215080409040E1F700C0D7
S113018000000E945E0008951092A90060E081E0E2
S11301900E946F0260E082E00E946F0261E083E0EF
S11301A00E946F0261E084E00E946F020E940604D4
S11301B08AE890E00E94DB032FEF85EA9EE021505D
S11301C080409040E1F700C000000E945E00089566
S11301D0CF92DF92EF92FF926B017C018091AA0093
S11301E0811134C025E1C216D104E104F10418F0F0
S11301F00E945E002BC085E1C816D104E104F1041D
S113020028F581E08093AA008093A8000E948300CF
S113021085E00E940A040E94060465E080E00E94D2
S1130220EE0385E990E00E94DB0365E081E00E9433
S1130230EE038EE990E00E94DB039FEF29E688E15C
S1130240915020408040E1F700C000008091A80058
S1130250823079F118F4813041F00EC1833009F411
S11302604CC0843009F46DC007C18091B3009091F3
S1130270B400A091B500B091B600C80ED91EEA1E14
S1130280FB1EC092B300D092B400E092B500F0928D
S1130290B60083E00E940A049FEF29E688E19150AA
S11302A020408040E1F700C0000082E08093A80075
S11302B0E3C08091B3009091B400A091B500B091D7
S11302C0B600C80ED91EEA1EFB1EC092B300D0921F
S11302D0B400E092B500F092B6008BE00E940A04EC
S11302E09FEF29E688E1915020408040E1F700C06B
S11302F0000083E08093A800BFC08091AF0090917C
S1130300B000A091B100B091B200C80ED91EEA1E8F
S1130310FB1EC092AF00D092B000E092B100F09208
S1130320B2008CE00E940A049FEF29E688E1915014
S113033020408040E1F700C0000084E08093A800E2
S11303409BC08091AF009091B000A091B100B0919A
S1130350B200C80ED91EEA1EFB1EC092AF00D09296
S1130360B000E092B100F092B2004091B30050911D
S1130370B4006091B5007091B600D701C601840F36
S1130380951FA61FB71F8093AB009093AC00A0935A
S1130390AD00B093AE0084369105A105B10590F48B
S11303A00E94860088E00E940A049FEF29E688E103
S11303B0915020408040E1F700C0000081E080932C
S11303C0A8005AC0C416D506E606F70658F588E014
S11303D00E940A040E94C4009FEF29E688E191501C
S11303E020408040E1F700C000001092AA00109263
S11303F0AB001092AC001092AD001092AE001092BF
S1130400AF001092B0001092B1001092B20010929E
S1130410B3001092B4001092B5001092B60010927E
S1130420A8002AC088E00E940A040E94A0009FEF4E
S113043029E688E1915020408040E1F700C00000A7
S11304401092AA001092AB001092AC001092AD0072
S11304501092AE001092AF001092B0001092B10052
S11304601092B2001092B3001092B4001092B50032
S11304701092B6001092A800FF90EF90DF90CF90FA
S113048008950E9473040E94E704089541E063E024
S113049082E00E94070541E064E082E00E940705D3
S11304A041E063E082E00E94070541E064E082E00D
S11304B00E94070541E065E082E00E94070541E0F3
S11304C066E082E00E94070541E065E082E00E9468
S11304D0070541E066E082E00E940705089566236F
S11304E019F06130C1F108958230A1F018F481301F
S11304F031F008958330C9F0843011F1089541E05A
S113050063E082E00E94780540E064E082E00E94BB
S11305107805089541E063E082E00E94780540E0B8
S113052064E082E00E947805089541E065E082E09D
S11305300E94780540E066E082E00E947805089514
S113054041E065E082E00E94780540E066E082E0F8
S11305500E94780508958230A1F018F4813031F0BA
S113056008958330C9F0843011F1089540E063E0C8
S113057082E00E94780541E064E082E00E94780510
S1130580089540E063E082E00E94780541E064E081
S113059082E00E947805089540E065E082E00E94D0
S11305A0780541E066E082E00E947805089540E025
S11305B065E082E00E94780541E066E082E00E9406
S11305C07805089541E063E082E00E94780541E007
S11305D064E082E00E94780541E063E082E00E94EA
S11305E0780541E064E082E00E94780541E065E03E
S11305F082E00E94780541E066E082E00E9478058E
S113060041E065E082E00E94780541E066E082E036
S11306100E9478050895CF93C82F40E061E081E0FF
S11306200E94780540E062E081E00E94780540E0A5
S113063063E081E00E9478058BB39C2F907F8F70DC
S1130640892B8BBB41E063E081E00E9478058FE950
S11306509FE00197F1F700C0000040E063E081E013
S11306600E94780520E1C29FC00111249BB39F70B2
S1130670892B8BBB41E063E081E00E9478058FE920
S11306809FE00197F1F700C0000040E063E081E0E3
S11306900E9478058FE19EE40197F1F700C0000005
S11306A0CF91089541E061E081E00E94070541E0B7
S11306B062E081E00E94070541E063E081E00E947E
S11306C0070541E064E080E00E94070541E065E041
S11306D080E00E94070541E066E080E00E94070593
S11306E041E067E080E00E9407052FEF81EE94E08F
S11306F0215080409040E1F700C0000083E30E9455
S11307000B0382E30E940B0388E20E940B038CE03C
S11307100E940B0381E00E940B0386E00E940B03FE
S113072082E00E940B030895CF93C82F41E061E05B
S113073081E00E94780540E062E081E00E94780553
S113074040E063E081E00E9478058BB39C2F907FAA
S11307508F70892B8BBB41E063E081E00E947805B8
S11307608FE99FE00197F1F700C0000040E063E0EB
S113077081E00E94780520E1C29FC00111249BB34F
S11307809F70892B8BBB41E063E081E00E94780578
S11307908FE99FE00197F1F700C0000040E063E0BB
S11307A081E00E9478058FE19EE40197F1F700C093
S11307B00000CF9108950F931F93CF938C01C0E055
S11307C003C00E949403CF5FF801EC0FF11D8081F8
S11307D08111F7CFCF911F910F910895CF93DF939C
S11307E000D0CDB7DEB790E8998390EC9A83E1E02E
S11307F0F0E0EC0FFD1FE80FF11D8081860F0E94D1
S11308000B030F900F90DF91CF91089581E00E9428
S11308100B0308950E94B607089541E065E083E064
S11308200E9407050E9471070E949B0788E00E94AE
S11308300A0408958091BD008F5F8093BD000895E0
S11308408091BF00813099F58091BE00811109C06B
S11308500E94020814BC81E08093BE001092BD0087
S113086008956091BD0070E0762F662784B5680F07
S1130870711D072E000C880B990B6093B9007093BF
S1130880BA008093BB009093BC00E091B700F09154
S1130890B800309709F009958AE18A95F1F700C00C
S11308A014BC1092BE001092BD001092BF000895B7
S11308B041E060E083E00E94070540E062E083E0FD
S11308C00E94070562E083E00E94E9050E94210678
S11308D00E94E00780E294E00E9477068AE194E0B7
S11308E00E94280808958091BF00811111C041E041
S11308F060E083E00E94780585E38A95F1F70000C3
S113090040E060E083E00E94780581E08093BF00CE
S113091008959093B8008093B70008958091C6001D
S11309208F5F8093C60008958091C800813099F547
S11309308091C700811109C00E940E0712BE81E098
S11309408093C7001092C60008956091C60070E0BD
S1130950762F662782B7680F711D072E000C880B4F
S1130960990B6093C2007093C3008093C40090936A
S1130970C500E091C000F091C100309709F00995DD
S11309808AE18A95F1F700C012BE1092C700109256
S1130990C6001092C800089541E061E083E00E941F
S11309A0070540E063E083E00E94070563E083E01D
S11309B00E94E9050E944C060E94EC0684E994E03A
S11309C00E94A5068EE894E00E9434070895809161
S11309D0C800811111C041E061E083E00E94780504
S11309E085E38A95F1F7000040E061E083E00E942E
S11309F0780581E08093C80008959093C1008093A6
S1130A00C00008950E9449000E944102FDCF442382
S1130A10B9F1413009F06BC0813089F028F082309F
S1130A20C9F0833011F1089581E090E002C0880F8D
S1130A30991F6A95E2F79AB3892B8ABB089581E0DE
S1130A4090E002C0880F991F6A95E2F797B3892B4B
S1130A5087BB089581E090E002C0880F991F6A95D2
S1130A60E2F794B3892B84BB089581E090E002C03F
S1130A70880F991F6A95E2F791B3892B81BB08957A
S1130A80813091F028F08230D9F0833029F1089533
S1130A9081E090E002C0880F991F6A95E2F7809583
S1130AA09AB389238ABB089581E090E002C0880F3D
S1130AB0991F6A95E2F7809597B3892387BB0895B8
S1130AC081E090E002C0880F991F6A95E2F7809553
S1130AD094B3892384BB089581E090E002C0880F19
S1130AE0991F6A95E2F7809591B3892381BB089594
S1130AF04423B9F1413009F06BC0813089F028F00A
S1130B008230C9F0833011F1089581E090E002C091
S1130B10880F991F6A95E2F79BB3892B8BBB0895C5
S1130B2081E090E002C0880F991F6A95E2F798B3BC
S1130B30892B88BB089581E090E002C0880F991F3B
S1130B406A95E2F795B3892B85BB089581E090E01F
S1130B5002C0880F991F6A95E2F792B3892B82BB72
S1130B600895813091F028F08230D9F0833029F152
S1130B70089581E090E002C0880F991F6A95E2F71A
S1130B8080959BB389238BBB089581E090E002C0DC
S1130B90880F991F6A95E2F7809598B3892388BBDB
S1130BA0089581E090E002C0880F991F6A95E2F7EA
S1130BB0809595B3892385BB089581E090E002C0B8
S1130BC0880F991F6A95E2F7809592B3892382BBB7
S1130BD00895813089F028F08230C9F0833011F112
S1130BE0089581E090E002C0880F991F6A95E2F7AA
S1130BF09BB3892B8BBB089581E090E002C0880FE2
S1130C00991F6A95E2F798B3892B88BB089581E010
S1130C1090E002C0880F991F6A95E2F795B3892B7B
S1130C2085BB089581E090E002C0880F991F6A9502
S1130C30E2F792B3892B82BB08958FB780688FBF88
S1130C4008950E941D068BB780648BBF809161005C
S1130C50811107C085B78E7F85BF85B78D7F85BF1E
S1130C600895833039F485B7816085BF85B78D7F5A
S1130C7085BF0895823039F485B78E7F85BF85B7E7
S1130C80826085BF0895813031F485B7816085BF66
S1130C9085B7826085BF08950E941D068BB7806862
S1130CA08BBF80916000811107C085B78B7F85BFA2
S1130CB085B7877F85BF0895833039F485B784600D
S1130CC085BF85B7877F85BF0895823039F485B79E
S1130CD08B7F85BF85B7886085BF0895813031F4E7
S1130CE085B7846085BF85B7886085BF0895909374
S1130CF0CC008093CB0008951F920F920FB60F92F1
S1130D0011242F933F934F935F936F937F938F930C
S1130D109F93AF93BF93EF93FF93E091CB00F09138
S1130D20CC00309709F00995FF91EF91BF91AF91F5
S1130D309F918F917F916F915F914F913F912F91EF
S1130D400F900FBE0F901F9018959093CA00809338
S1130D50C90008951F920F920FB60F9211242F937A
S1130D603F934F935F936F937F938F939F93AF932F
S1130D70BF93EF93FF93E091C900F091CA003097BD
S1130D8009F00995FF91EF91BF91AF919F918F91D8
S1130D907F916F915F914F913F912F910F900FBE73
S1130DA00F901F901895809162008823A1F0809184
S1130DB0CF00882319F0823041F008958FB78068FE
S1130DC08FBF89B7816089BF08958FB780688FBF4F
S1130DD089B7806189BF08958091CF00823059F02E
S1130DE0833081F0811117C083B7877F83BF83B7B6
S1130DF08F7B83BF10C083B7877F83BF83B7806433
S1130E0083BF09C083B7886083BF83B7806483BF0F
S1130E1083B7806283BF0E94D30608958091CF0078
S1130E20823071F08330B1F081111DC083B78160CD
S1130E3083BF83B78D7F83BF83B7846083BF0895E7
S1130E4083B7816083BF83B78D7F83BF83B784609B
S1130E5083BF089583B78E7F83BF83B78D7F83BF9E
S1130E6083B7846083BF08959093CE008093CD00B0
S1130E7008951F920F920FB60F9211242F933F9350
S1130E804F935F936F937F938F939F93AF93BF938E
S1130E90EF93FF93E091CD00F091CE00309709F0ED
S1130EA00995FF91EF91BF91AF919F918F917F91A0
S1130EB06F915F914F913F912F910F900FBE0F90C3
S1130EC01F9018958091D000882351F08091630081
S1130ED0811106C08FB780688FBF89B7806189BFD1
S1130EE0089580916300882319F0813071F020C047
S1130EF08FB58E7F8FBD8FB58D7F8FBD8EB5877F6C
S1130F008EBD8EB58F7E8EBD13C08FB58E7F8FBD87
S1130F108FB582608FBD8EB588608EBD8EB58061C1
S1130F208EBD8FB580688FBD82EE94E097BD86BD7F
S1130F300E946207089580916300882319F081302C
S1130F4059F008958EB581608EBD8EB58D7F8EBDAE
S1130F508EB584608EBD08958EB58E7F8EBD8EB5A0
S1130F608D7F8EBD8EB584608EBD089522EE34E0F3
S1130F70482F429FC001439F900D112464E670E006
S1130F800E945608615071097BBD6ABD0895809125
S1130F9064008823A1F08091D300882319F0823063
S1130FA041F008958FB780688FBF89B7806489BF87
S1130FB008958FB780688FBF89B7806189BF08950E
S1130FC08091D300823059F0833081F0811117C0B1
S1130FD085B5877F85BD85B58F7B85BD10C085B5FB
S1130FE0886085BD85B58F7B85BD09C085B5886062
S1130FF085BD85B5806485BD85B5806285BD0E944B
S1131000C70708958091D300823071F08330B1F026
S113101081111DC085B5816085BD85B5826085BDA2
S113102085B5846085BD089585B5816085BD85B528
S11310308D7F85BD85B5846085BD089585B58E7F1A
S113104085BD85B58D7F85BD85B5846085BD0895D5
S11310509093D2008093D10008951F920F920FB6FF
S11310600F9211242F933F934F935F936F937F932A
S11310708F939F93AF93BF93EF93FF93E091D1002E
S1131080F091D200309709F00995FF91EF91BF914B
S1131090AF919F918F917F916F915F914F913F910C
S11310A02F910F900FBE0F901F90189597FB072E4E
S11310B016F4009407D077FD09D00E946A0807FC53
S11310C005D03EF4909581959F4F08957095619554
S11310D07F4F0895AA1BBB1B51E107C0AA1FBB1F6A
S11310E0A617B70710F0A61BB70B881F991F5A95B0
S11310F0A9F780959095BC01CD010895F894FFCF90
S113110003030101016D6F766520666F727761726A
S113111064006D6F7665206261636B776172640051
S11311206D6F7665204C454654006D6F7665205290
S113113049474854004F70737461636C650044659B
S10B114074656374656400002A
S9030000FC
